{
  "contractName": "TangibleItems",
  "abi": [
    {
      "inputs": [],
      "stateMutability": "nonpayable",
      "type": "constructor"
    },
    {
      "anonymous": false,
      "inputs": [
        {
          "indexed": true,
          "internalType": "address",
          "name": "owner",
          "type": "address"
        },
        {
          "indexed": true,
          "internalType": "address",
          "name": "approved",
          "type": "address"
        },
        {
          "indexed": true,
          "internalType": "uint256",
          "name": "tokenId",
          "type": "uint256"
        }
      ],
      "name": "Approval",
      "type": "event"
    },
    {
      "anonymous": false,
      "inputs": [
        {
          "indexed": true,
          "internalType": "address",
          "name": "owner",
          "type": "address"
        },
        {
          "indexed": true,
          "internalType": "address",
          "name": "operator",
          "type": "address"
        },
        {
          "indexed": false,
          "internalType": "bool",
          "name": "approved",
          "type": "bool"
        }
      ],
      "name": "ApprovalForAll",
      "type": "event"
    },
    {
      "anonymous": false,
      "inputs": [
        {
          "indexed": true,
          "internalType": "address",
          "name": "from",
          "type": "address"
        },
        {
          "indexed": true,
          "internalType": "address",
          "name": "to",
          "type": "address"
        },
        {
          "indexed": true,
          "internalType": "uint256",
          "name": "tokenId",
          "type": "uint256"
        }
      ],
      "name": "Transfer",
      "type": "event"
    },
    {
      "inputs": [],
      "name": "_itemIds",
      "outputs": [
        {
          "internalType": "uint256",
          "name": "",
          "type": "uint256"
        }
      ],
      "stateMutability": "view",
      "type": "function",
      "constant": true
    },
    {
      "inputs": [],
      "name": "_tokenIds",
      "outputs": [
        {
          "internalType": "uint256",
          "name": "",
          "type": "uint256"
        }
      ],
      "stateMutability": "view",
      "type": "function",
      "constant": true
    },
    {
      "inputs": [
        {
          "internalType": "address",
          "name": "to",
          "type": "address"
        },
        {
          "internalType": "uint256",
          "name": "tokenId",
          "type": "uint256"
        }
      ],
      "name": "approve",
      "outputs": [],
      "stateMutability": "nonpayable",
      "type": "function"
    },
    {
      "inputs": [
        {
          "internalType": "address",
          "name": "owner",
          "type": "address"
        }
      ],
      "name": "balanceOf",
      "outputs": [
        {
          "internalType": "uint256",
          "name": "",
          "type": "uint256"
        }
      ],
      "stateMutability": "view",
      "type": "function",
      "constant": true
    },
    {
      "inputs": [],
      "name": "baseURI",
      "outputs": [
        {
          "internalType": "string",
          "name": "",
          "type": "string"
        }
      ],
      "stateMutability": "view",
      "type": "function",
      "constant": true
    },
    {
      "inputs": [
        {
          "internalType": "uint256",
          "name": "tokenId",
          "type": "uint256"
        }
      ],
      "name": "getApproved",
      "outputs": [
        {
          "internalType": "address",
          "name": "",
          "type": "address"
        }
      ],
      "stateMutability": "view",
      "type": "function",
      "constant": true
    },
    {
      "inputs": [
        {
          "internalType": "address",
          "name": "owner",
          "type": "address"
        },
        {
          "internalType": "address",
          "name": "operator",
          "type": "address"
        }
      ],
      "name": "isApprovedForAll",
      "outputs": [
        {
          "internalType": "bool",
          "name": "",
          "type": "bool"
        }
      ],
      "stateMutability": "view",
      "type": "function",
      "constant": true
    },
    {
      "inputs": [],
      "name": "name",
      "outputs": [
        {
          "internalType": "string",
          "name": "",
          "type": "string"
        }
      ],
      "stateMutability": "view",
      "type": "function",
      "constant": true
    },
    {
      "inputs": [
        {
          "internalType": "uint256",
          "name": "tokenId",
          "type": "uint256"
        }
      ],
      "name": "ownerOf",
      "outputs": [
        {
          "internalType": "address",
          "name": "",
          "type": "address"
        }
      ],
      "stateMutability": "view",
      "type": "function",
      "constant": true
    },
    {
      "inputs": [
        {
          "internalType": "address",
          "name": "dest",
          "type": "address"
        }
      ],
      "name": "payments",
      "outputs": [
        {
          "internalType": "uint256",
          "name": "",
          "type": "uint256"
        }
      ],
      "stateMutability": "view",
      "type": "function",
      "constant": true
    },
    {
      "inputs": [
        {
          "internalType": "address",
          "name": "from",
          "type": "address"
        },
        {
          "internalType": "address",
          "name": "to",
          "type": "address"
        },
        {
          "internalType": "uint256",
          "name": "tokenId",
          "type": "uint256"
        }
      ],
      "name": "safeTransferFrom",
      "outputs": [],
      "stateMutability": "nonpayable",
      "type": "function"
    },
    {
      "inputs": [
        {
          "internalType": "address",
          "name": "from",
          "type": "address"
        },
        {
          "internalType": "address",
          "name": "to",
          "type": "address"
        },
        {
          "internalType": "uint256",
          "name": "tokenId",
          "type": "uint256"
        },
        {
          "internalType": "bytes",
          "name": "_data",
          "type": "bytes"
        }
      ],
      "name": "safeTransferFrom",
      "outputs": [],
      "stateMutability": "nonpayable",
      "type": "function"
    },
    {
      "inputs": [
        {
          "internalType": "address",
          "name": "operator",
          "type": "address"
        },
        {
          "internalType": "bool",
          "name": "approved",
          "type": "bool"
        }
      ],
      "name": "setApprovalForAll",
      "outputs": [],
      "stateMutability": "nonpayable",
      "type": "function"
    },
    {
      "inputs": [
        {
          "internalType": "bytes4",
          "name": "interfaceId",
          "type": "bytes4"
        }
      ],
      "name": "supportsInterface",
      "outputs": [
        {
          "internalType": "bool",
          "name": "",
          "type": "bool"
        }
      ],
      "stateMutability": "view",
      "type": "function",
      "constant": true
    },
    {
      "inputs": [],
      "name": "symbol",
      "outputs": [
        {
          "internalType": "string",
          "name": "",
          "type": "string"
        }
      ],
      "stateMutability": "view",
      "type": "function",
      "constant": true
    },
    {
      "inputs": [
        {
          "internalType": "uint256",
          "name": "index",
          "type": "uint256"
        }
      ],
      "name": "tokenByIndex",
      "outputs": [
        {
          "internalType": "uint256",
          "name": "",
          "type": "uint256"
        }
      ],
      "stateMutability": "view",
      "type": "function",
      "constant": true
    },
    {
      "inputs": [
        {
          "internalType": "address",
          "name": "owner",
          "type": "address"
        },
        {
          "internalType": "uint256",
          "name": "index",
          "type": "uint256"
        }
      ],
      "name": "tokenOfOwnerByIndex",
      "outputs": [
        {
          "internalType": "uint256",
          "name": "",
          "type": "uint256"
        }
      ],
      "stateMutability": "view",
      "type": "function",
      "constant": true
    },
    {
      "inputs": [
        {
          "internalType": "uint256",
          "name": "tokenId",
          "type": "uint256"
        }
      ],
      "name": "tokenURI",
      "outputs": [
        {
          "internalType": "string",
          "name": "",
          "type": "string"
        }
      ],
      "stateMutability": "view",
      "type": "function",
      "constant": true
    },
    {
      "inputs": [],
      "name": "totalSupply",
      "outputs": [
        {
          "internalType": "uint256",
          "name": "",
          "type": "uint256"
        }
      ],
      "stateMutability": "view",
      "type": "function",
      "constant": true
    },
    {
      "inputs": [
        {
          "internalType": "address",
          "name": "from",
          "type": "address"
        },
        {
          "internalType": "address",
          "name": "to",
          "type": "address"
        },
        {
          "internalType": "uint256",
          "name": "tokenId",
          "type": "uint256"
        }
      ],
      "name": "transferFrom",
      "outputs": [],
      "stateMutability": "nonpayable",
      "type": "function"
    },
    {
      "inputs": [
        {
          "internalType": "address payable",
          "name": "payee",
          "type": "address"
        }
      ],
      "name": "withdrawPayments",
      "outputs": [],
      "stateMutability": "nonpayable",
      "type": "function"
    },
    {
      "inputs": [
        {
          "internalType": "uint256",
          "name": "price",
          "type": "uint256"
        },
        {
          "internalType": "string",
          "name": "tokenURI",
          "type": "string"
        }
      ],
      "name": "addItem",
      "outputs": [],
      "stateMutability": "nonpayable",
      "type": "function"
    },
    {
      "inputs": [
        {
          "internalType": "uint256",
          "name": "id",
          "type": "uint256"
        }
      ],
      "name": "getItem",
      "outputs": [
        {
          "internalType": "uint256",
          "name": "",
          "type": "uint256"
        },
        {
          "internalType": "uint256",
          "name": "",
          "type": "uint256"
        },
        {
          "internalType": "string",
          "name": "",
          "type": "string"
        }
      ],
      "stateMutability": "view",
      "type": "function",
      "constant": true
    },
    {
      "inputs": [
        {
          "internalType": "uint256",
          "name": "itemId",
          "type": "uint256"
        }
      ],
      "name": "purchaseItem",
      "outputs": [],
      "stateMutability": "payable",
      "type": "function",
      "payable": true
    },
    {
      "inputs": [],
      "name": "getPayments",
      "outputs": [],
      "stateMutability": "nonpayable",
      "type": "function"
    }
  ],
  "bytecode": "0x60806040523480156200001157600080fd5b506040518060400160405280600d81526020017f54616e6769626c654974656d73000000000000000000000000000000000000008152506040518060400160405280600381526020017f5447490000000000000000000000000000000000000000000000000000000000815250620000966301ffc9a760e01b6200018460201b60201c565b8160069080519060200190620000ae9291906200028d565b508060079080519060200190620000c79291906200028d565b50620000e06380ac58cd60e01b6200018460201b60201c565b620000f8635b5e139f60e01b6200018460201b60201c565b6200011063780e9d6360e01b6200018460201b60201c565b5050604051620001209062000314565b604051809103906000f0801580156200013d573d6000803e3d6000fd5b50600a60006101000a81548173ffffffffffffffffffffffffffffffffffffffff021916908373ffffffffffffffffffffffffffffffffffffffff1602179055506200034a565b63ffffffff60e01b817bffffffffffffffffffffffffffffffffffffffffffffffffffffffff1916141562000221576040517f08c379a000000000000000000000000000000000000000000000000000000000815260040180806020018281038252601c8152602001807f4552433136353a20696e76616c696420696e746572666163652069640000000081525060200191505060405180910390fd5b6001600080837bffffffffffffffffffffffffffffffffffffffffffffffffffffffff19167bffffffffffffffffffffffffffffffffffffffffffffffffffffffff1916815260200190815260200160002060006101000a81548160ff02191690831515021790555050565b828054600181600116156101000203166002900490600052602060002090601f016020900481019282601f10620002d057805160ff191683800117855562000301565b8280016001018555821562000301579182015b8281111562000300578251825591602001919060010190620002e3565b5b50905062000310919062000322565b5090565b610cca8062003b9b83390190565b6200034791905b808211156200034357600081600090555060010162000329565b5090565b90565b613841806200035a6000396000f3fe6080604052600436106101665760003560e01c80636352211e116100d1578063b88d4fde1161008a578063d38ea5bf11610064578063d38ea5bf14610b80578063d56bd14214610bae578063e2982c2114610bc5578063e985e9c514610c2a57610166565b8063b88d4fde146108e8578063be572d52146109fa578063c87b56dd14610acc57610166565b80636352211e146106605780636c0360eb146106db57806370a082311461076b57806395d89b41146107d0578063a22cb46514610860578063aa46a400146108bd57610166565b80632f745c59116101235780632f745c59146103e95780633129e7731461045857806331b3eb941461051a57806334a7f1931461056b57806342842e0e146105965780634f6ccce71461061157610166565b806301ffc9a71461016b57806306fdde03146101dd578063081812fc1461026d578063095ea7b3146102e857806318160ddd1461034357806323b872dd1461036e575b600080fd5b34801561017757600080fd5b506101c36004803603602081101561018e57600080fd5b8101908080357bffffffffffffffffffffffffffffffffffffffffffffffffffffffff19169060200190929190505050610cb3565b604051808215151515815260200191505060405180910390f35b3480156101e957600080fd5b506101f2610d1a565b6040518080602001828103825283818151815260200191508051906020019080838360005b83811015610232578082015181840152602081019050610217565b50505050905090810190601f16801561025f5780820380516001836020036101000a031916815260200191505b509250505060405180910390f35b34801561027957600080fd5b506102a66004803603602081101561029057600080fd5b8101908080359060200190929190505050610dbc565b604051808273ffffffffffffffffffffffffffffffffffffffff1673ffffffffffffffffffffffffffffffffffffffff16815260200191505060405180910390f35b3480156102f457600080fd5b506103416004803603604081101561030b57600080fd5b81019080803573ffffffffffffffffffffffffffffffffffffffff16906020019092919080359060200190929190505050610e57565b005b34801561034f57600080fd5b50610358610f9b565b6040518082815260200191505060405180910390f35b34801561037a57600080fd5b506103e76004803603606081101561039157600080fd5b81019080803573ffffffffffffffffffffffffffffffffffffffff169060200190929190803573ffffffffffffffffffffffffffffffffffffffff16906020019092919080359060200190929190505050610fac565b005b3480156103f557600080fd5b506104426004803603604081101561040c57600080fd5b81019080803573ffffffffffffffffffffffffffffffffffffffff16906020019092919080359060200190929190505050611022565b6040518082815260200191505060405180910390f35b34801561046457600080fd5b506104916004803603602081101561047b57600080fd5b810190808035906020019092919050505061107d565b6040518084815260200183815260200180602001828103825283818151815260200191508051906020019080838360005b838110156104dd5780820151818401526020810190506104c2565b50505050905090810190601f16801561050a5780820380516001836020036101000a031916815260200191505b5094505050505060405180910390f35b34801561052657600080fd5b506105696004803603602081101561053d57600080fd5b81019080803573ffffffffffffffffffffffffffffffffffffffff16906020019092919050505061127b565b005b34801561057757600080fd5b50610580611337565b6040518082815260200191505060405180910390f35b3480156105a257600080fd5b5061060f600480360360608110156105b957600080fd5b81019080803573ffffffffffffffffffffffffffffffffffffffff169060200190929190803573ffffffffffffffffffffffffffffffffffffffff1690602001909291908035906020019092919050505061133d565b005b34801561061d57600080fd5b5061064a6004803603602081101561063457600080fd5b810190808035906020019092919050505061135d565b6040518082815260200191505060405180910390f35b34801561066c57600080fd5b506106996004803603602081101561068357600080fd5b8101908080359060200190929190505050611380565b604051808273ffffffffffffffffffffffffffffffffffffffff1673ffffffffffffffffffffffffffffffffffffffff16815260200191505060405180910390f35b3480156106e757600080fd5b506106f06113b7565b6040518080602001828103825283818151815260200191508051906020019080838360005b83811015610730578082015181840152602081019050610715565b50505050905090810190601f16801561075d5780820380516001836020036101000a031916815260200191505b509250505060405180910390f35b34801561077757600080fd5b506107ba6004803603602081101561078e57600080fd5b81019080803573ffffffffffffffffffffffffffffffffffffffff169060200190929190505050611459565b6040518082815260200191505060405180910390f35b3480156107dc57600080fd5b506107e561152e565b6040518080602001828103825283818151815260200191508051906020019080838360005b8381101561082557808201518184015260208101905061080a565b50505050905090810190601f1680156108525780820380516001836020036101000a031916815260200191505b509250505060405180910390f35b34801561086c57600080fd5b506108bb6004803603604081101561088357600080fd5b81019080803573ffffffffffffffffffffffffffffffffffffffff1690602001909291908035151590602001909291905050506115d0565b005b3480156108c957600080fd5b506108d2611788565b6040518082815260200191505060405180910390f35b3480156108f457600080fd5b506109f86004803603608081101561090b57600080fd5b81019080803573ffffffffffffffffffffffffffffffffffffffff169060200190929190803573ffffffffffffffffffffffffffffffffffffffff169060200190929190803590602001909291908035906020019064010000000081111561097257600080fd5b82018360208201111561098457600080fd5b803590602001918460018302840111640100000000831117156109a657600080fd5b91908080601f016020809104026020016040519081016040528093929190818152602001838380828437600081840152601f19601f82011690508083019250505050505050919291929050505061178e565b005b348015610a0657600080fd5b50610aca60048036036040811015610a1d57600080fd5b810190808035906020019092919080359060200190640100000000811115610a4457600080fd5b820183602082011115610a5657600080fd5b80359060200191846001830284011164010000000083111715610a7857600080fd5b91908080601f016020809104026020016040519081016040528093929190818152602001838380828437600081840152601f19601f820116905080830192505050505050509192919290505050611806565b005b348015610ad857600080fd5b50610b0560048036036020811015610aef57600080fd5b8101908080359060200190929190505050611972565b6040518080602001828103825283818151815260200191508051906020019080838360005b83811015610b45578082015181840152602081019050610b2a565b50505050905090810190601f168015610b725780820380516001836020036101000a031916815260200191505b509250505060405180910390f35b610bac60048036036020811015610b9657600080fd5b8101908080359060200190929190505050611c5b565b005b348015610bba57600080fd5b50610bc3611e7c565b005b348015610bd157600080fd5b50610c1460048036036020811015610be857600080fd5b81019080803573ffffffffffffffffffffffffffffffffffffffff169060200190929190505050611e87565b6040518082815260200191505060405180910390f35b348015610c3657600080fd5b50610c9960048036036040811015610c4d57600080fd5b81019080803573ffffffffffffffffffffffffffffffffffffffff169060200190929190803573ffffffffffffffffffffffffffffffffffffffff169060200190929190505050611f6a565b604051808215151515815260200191505060405180910390f35b6000806000837bffffffffffffffffffffffffffffffffffffffffffffffffffffffff19167bffffffffffffffffffffffffffffffffffffffffffffffffffffffff1916815260200190815260200160002060009054906101000a900460ff169050919050565b606060068054600181600116156101000203166002900480601f016020809104026020016040519081016040528092919081815260200182805460018160011615610100020316600290048015610db25780601f10610d8757610100808354040283529160200191610db2565b820191906000526020600020905b815481529060010190602001808311610d9557829003601f168201915b5050505050905090565b6000610dc782611ffe565b610e1c576040517f08c379a000000000000000000000000000000000000000000000000000000000815260040180806020018281038252602c81526020018061370a602c913960400191505060405180910390fd5b6004600083815260200190815260200160002060009054906101000a900473ffffffffffffffffffffffffffffffffffffffff169050919050565b6000610e6282611380565b90508073ffffffffffffffffffffffffffffffffffffffff168373ffffffffffffffffffffffffffffffffffffffff161415610ee9576040517f08c379a00000000000000000000000000000000000000000000000000000000081526004018080602001828103825260218152602001806137ba6021913960400191505060405180910390fd5b8073ffffffffffffffffffffffffffffffffffffffff16610f0861201b565b73ffffffffffffffffffffffffffffffffffffffff161480610f375750610f3681610f3161201b565b611f6a565b5b610f8c576040517f08c379a000000000000000000000000000000000000000000000000000000000815260040180806020018281038252603881526020018061365d6038913960400191505060405180910390fd5b610f968383612023565b505050565b6000610fa760026120dc565b905090565b610fbd610fb761201b565b826120f1565b611012576040517f08c379a00000000000000000000000000000000000000000000000000000000081526004018080602001828103825260318152602001806137db6031913960400191505060405180910390fd5b61101d8383836121e5565b505050565b600061107582600160008673ffffffffffffffffffffffffffffffffffffffff1673ffffffffffffffffffffffffffffffffffffffff16815260200190815260200160002061242890919063ffffffff16565b905092915050565b600080606083600d600082815260200190815260200160002060030160009054906101000a900460ff16611119576040517f08c379a00000000000000000000000000000000000000000000000000000000081526004018080602001828103825260098152602001807f4e6f7420466f756e64000000000000000000000000000000000000000000000081525060200191505060405180910390fd5b61112161342d565b600d60008781526020019081526020016000206040518060800160405290816000820160009054906101000a900473ffffffffffffffffffffffffffffffffffffffff1673ffffffffffffffffffffffffffffffffffffffff1673ffffffffffffffffffffffffffffffffffffffff16815260200160018201548152602001600282018054600181600116156101000203166002900480601f0160208091040260200160405190810160405280929190818152602001828054600181600116156101000203166002900480156112385780601f1061120d57610100808354040283529160200191611238565b820191906000526020600020905b81548152906001019060200180831161121b57829003601f168201915b505050505081526020016003820160009054906101000a900460ff1615151515815250509050858160200151826040015180905094509450945050509193909250565b600a60009054906101000a900473ffffffffffffffffffffffffffffffffffffffff1673ffffffffffffffffffffffffffffffffffffffff166351cff8d9826040518263ffffffff1660e01b8152600401808273ffffffffffffffffffffffffffffffffffffffff1673ffffffffffffffffffffffffffffffffffffffff168152602001915050600060405180830381600087803b15801561131c57600080fd5b505af1158015611330573d6000803e3d6000fd5b5050505050565b600c5481565b6113588383836040518060200160405280600081525061178e565b505050565b60008061137483600261244290919063ffffffff16565b50905080915050919050565b60006113b0826040518060600160405280602981526020016136bf6029913960026124719092919063ffffffff16565b9050919050565b606060098054600181600116156101000203166002900480601f01602080910402602001604051908101604052809291908181526020018280546001816001161561010002031660029004801561144f5780601f106114245761010080835404028352916020019161144f565b820191906000526020600020905b81548152906001019060200180831161143257829003601f168201915b5050505050905090565b60008073ffffffffffffffffffffffffffffffffffffffff168273ffffffffffffffffffffffffffffffffffffffff1614156114e0576040517f08c379a000000000000000000000000000000000000000000000000000000000815260040180806020018281038252602a815260200180613695602a913960400191505060405180910390fd5b611527600160008473ffffffffffffffffffffffffffffffffffffffff1673ffffffffffffffffffffffffffffffffffffffff168152602001908152602001600020612490565b9050919050565b606060078054600181600116156101000203166002900480601f0160208091040260200160405190810160405280929190818152602001828054600181600116156101000203166002900480156115c65780601f1061159b576101008083540402835291602001916115c6565b820191906000526020600020905b8154815290600101906020018083116115a957829003601f168201915b5050505050905090565b6115d861201b565b73ffffffffffffffffffffffffffffffffffffffff168273ffffffffffffffffffffffffffffffffffffffff161415611679576040517f08c379a00000000000000000000000000000000000000000000000000000000081526004018080602001828103825260198152602001807f4552433732313a20617070726f766520746f2063616c6c65720000000000000081525060200191505060405180910390fd5b806005600061168661201b565b73ffffffffffffffffffffffffffffffffffffffff1673ffffffffffffffffffffffffffffffffffffffff16815260200190815260200160002060008473ffffffffffffffffffffffffffffffffffffffff1673ffffffffffffffffffffffffffffffffffffffff16815260200190815260200160002060006101000a81548160ff0219169083151502179055508173ffffffffffffffffffffffffffffffffffffffff1661173361201b565b73ffffffffffffffffffffffffffffffffffffffff167f17307eab39ab6107e8899845ad3d59bd9653f200f220920489ca2b5937696c3183604051808215151515815260200191505060405180910390a35050565b600b5481565b61179f61179961201b565b836120f1565b6117f4576040517f08c379a00000000000000000000000000000000000000000000000000000000081526004018080602001828103825260318152602001806137db6031913960400191505060405180910390fd5b611800848484846124a5565b50505050565b6000821161187c576040517f08c379a00000000000000000000000000000000000000000000000000000000081526004018080602001828103825260118152602001807f50726963652063616e6e6f74206265203000000000000000000000000000000081525060200191505060405180910390fd5b600c6000815480929190600101919050555060405180608001604052803373ffffffffffffffffffffffffffffffffffffffff16815260200183815260200182815260200160011515815250600d6000600c54815260200190815260200160002060008201518160000160006101000a81548173ffffffffffffffffffffffffffffffffffffffff021916908373ffffffffffffffffffffffffffffffffffffffff16021790555060208201518160010155604082015181600201908051906020019061194a92919061346d565b5060608201518160030160006101000a81548160ff0219169083151502179055509050505050565b606061197d82611ffe565b6119d2576040517f08c379a000000000000000000000000000000000000000000000000000000000815260040180806020018281038252602f81526020018061378b602f913960400191505060405180910390fd5b6060600860008481526020019081526020016000208054600181600116156101000203166002900480601f016020809104026020016040519081016040528092919081815260200182805460018160011615610100020316600290048015611a7b5780601f10611a5057610100808354040283529160200191611a7b565b820191906000526020600020905b815481529060010190602001808311611a5e57829003601f168201915b50505050509050600060098054600181600116156101000203166002900490501415611aaa5780915050611c56565b600081511115611b83576009816040516020018083805460018160011615610100020316600290048015611b155780601f10611af3576101008083540402835291820191611b15565b820191906000526020600020905b815481529060010190602001808311611b01575b505082805190602001908083835b60208310611b465780518252602082019150602081019050602083039250611b23565b6001836020036101000a03801982511681845116808217855250505050505090500192505050604051602081830303815290604052915050611c56565b6009611b8e84612517565b6040516020018083805460018160011615610100020316600290048015611bec5780601f10611bca576101008083540402835291820191611bec565b820191906000526020600020905b815481529060010190602001808311611bd8575b505082805190602001908083835b60208310611c1d5780518252602082019150602081019050602083039250611bfa565b6001836020036101000a038019825116818451168082178552505050505050905001925050506040516020818303038152906040529150505b919050565b80600d600082815260200190815260200160002060030160009054906101000a900460ff16611cf2576040517f08c379a00000000000000000000000000000000000000000000000000000000081526004018080602001828103825260098152602001807f4e6f7420466f756e64000000000000000000000000000000000000000000000081525060200191505060405180910390fd5b6000600d600084815260200190815260200160002090508060010154341015611d83576040517f08c379a00000000000000000000000000000000000000000000000000000000081526004018080602001828103825260138152602001807f596f75722062696420697320746f6f206c6f770000000000000000000000000081525060200191505060405180910390fd5b600b60008154809291906001019190505550611da133600b54612647565b611e49600b54826002018054600181600116156101000203166002900480601f016020809104026020016040519081016040528092919081815260200182805460018160011615610100020316600290048015611e3f5780601f10611e1457610100808354040283529160200191611e3f565b820191906000526020600020905b815481529060010190602001808311611e2257829003601f168201915b5050505050612665565b611e778160000160009054906101000a900473ffffffffffffffffffffffffffffffffffffffff16346126ef565b505050565b611e853361127b565b565b6000600a60009054906101000a900473ffffffffffffffffffffffffffffffffffffffff1673ffffffffffffffffffffffffffffffffffffffff1663e3a9db1a836040518263ffffffff1660e01b8152600401808273ffffffffffffffffffffffffffffffffffffffff1673ffffffffffffffffffffffffffffffffffffffff16815260200191505060206040518083038186803b158015611f2857600080fd5b505afa158015611f3c573d6000803e3d6000fd5b505050506040513d6020811015611f5257600080fd5b81019080805190602001909291905050509050919050565b6000600560008473ffffffffffffffffffffffffffffffffffffffff1673ffffffffffffffffffffffffffffffffffffffff16815260200190815260200160002060008373ffffffffffffffffffffffffffffffffffffffff1673ffffffffffffffffffffffffffffffffffffffff16815260200190815260200160002060009054906101000a900460ff16905092915050565b60006120148260026127ad90919063ffffffff16565b9050919050565b600033905090565b816004600083815260200190815260200160002060006101000a81548173ffffffffffffffffffffffffffffffffffffffff021916908373ffffffffffffffffffffffffffffffffffffffff160217905550808273ffffffffffffffffffffffffffffffffffffffff1661209683611380565b73ffffffffffffffffffffffffffffffffffffffff167f8c5be1e5ebec7d5bd14f71427d1e84f3dd0314c0f7b2291e5b200ac8c7c3b92560405160405180910390a45050565b60006120ea826000016127c7565b9050919050565b60006120fc82611ffe565b612151576040517f08c379a000000000000000000000000000000000000000000000000000000000815260040180806020018281038252602c815260200180613631602c913960400191505060405180910390fd5b600061215c83611380565b90508073ffffffffffffffffffffffffffffffffffffffff168473ffffffffffffffffffffffffffffffffffffffff1614806121cb57508373ffffffffffffffffffffffffffffffffffffffff166121b384610dbc565b73ffffffffffffffffffffffffffffffffffffffff16145b806121dc57506121db8185611f6a565b5b91505092915050565b8273ffffffffffffffffffffffffffffffffffffffff1661220582611380565b73ffffffffffffffffffffffffffffffffffffffff1614612271576040517f08c379a00000000000000000000000000000000000000000000000000000000081526004018080602001828103825260298152602001806137626029913960400191505060405180910390fd5b600073ffffffffffffffffffffffffffffffffffffffff168273ffffffffffffffffffffffffffffffffffffffff1614156122f7576040517f08c379a00000000000000000000000000000000000000000000000000000000081526004018080602001828103825260248152602001806135e76024913960400191505060405180910390fd5b6123028383836127d8565b61230d600082612023565b61235e81600160008673ffffffffffffffffffffffffffffffffffffffff1673ffffffffffffffffffffffffffffffffffffffff1681526020019081526020016000206127dd90919063ffffffff16565b506123b081600160008573ffffffffffffffffffffffffffffffffffffffff1673ffffffffffffffffffffffffffffffffffffffff1681526020019081526020016000206127f790919063ffffffff16565b506123c7818360026128119092919063ffffffff16565b50808273ffffffffffffffffffffffffffffffffffffffff168473ffffffffffffffffffffffffffffffffffffffff167fddf252ad1be2c89b69c2b068fc378daa952ba7f163c4a11628f55a4df523b3ef60405160405180910390a4505050565b60006124378360000183612846565b60001c905092915050565b60008060008061245586600001866128c9565b915091508160001c8160001c8090509350935050509250929050565b6000612484846000018460001b84612962565b60001c90509392505050565b600061249e82600001612a58565b9050919050565b6124b08484846121e5565b6124bc84848484612a69565b612511576040517f08c379a00000000000000000000000000000000000000000000000000000000081526004018080602001828103825260328152602001806135b56032913960400191505060405180910390fd5b50505050565b6060600082141561255f576040518060400160405280600181526020017f30000000000000000000000000000000000000000000000000000000000000008152509050612642565b600082905060005b60008214612589578080600101915050600a828161258157fe5b049150612567565b6060816040519080825280601f01601f1916602001820160405280156125be5781602001600182028038833980820191505090505b50905060006001830390508593505b6000841461263a57600a84816125df57fe5b0660300160f81b828280600190039350815181106125f957fe5b60200101907effffffffffffffffffffffffffffffffffffffffffffffffffffffffffffff1916908160001a905350600a848161263257fe5b0493506125cd565b819450505050505b919050565b612661828260405180602001604052806000815250612cae565b5050565b61266e82611ffe565b6126c3576040517f08c379a000000000000000000000000000000000000000000000000000000000815260040180806020018281038252602c815260200180613736602c913960400191505060405180910390fd5b806008600084815260200190815260200160002090805190602001906126ea9291906134ed565b505050565b600a60009054906101000a900473ffffffffffffffffffffffffffffffffffffffff1673ffffffffffffffffffffffffffffffffffffffff1663f340fa0182846040518363ffffffff1660e01b8152600401808273ffffffffffffffffffffffffffffffffffffffff1673ffffffffffffffffffffffffffffffffffffffff1681526020019150506000604051808303818588803b15801561279057600080fd5b505af11580156127a4573d6000803e3d6000fd5b50505050505050565b60006127bf836000018360001b612d1f565b905092915050565b600081600001805490509050919050565b505050565b60006127ef836000018360001b612d42565b905092915050565b6000612809836000018360001b612e2a565b905092915050565b600061283d846000018460001b8473ffffffffffffffffffffffffffffffffffffffff1660001b612e9a565b90509392505050565b6000818360000180549050116128a7576040517f08c379a00000000000000000000000000000000000000000000000000000000081526004018080602001828103825260228152602001806135936022913960400191505060405180910390fd5b8260000182815481106128b657fe5b9060005260206000200154905092915050565b6000808284600001805490501161292b576040517f08c379a00000000000000000000000000000000000000000000000000000000081526004018080602001828103825260228152602001806136e86022913960400191505060405180910390fd5b600084600001848154811061293c57fe5b906000526020600020906002020190508060000154816001015492509250509250929050565b60008084600101600085815260200190815260200160002054905060008114158390612a29576040517f08c379a00000000000000000000000000000000000000000000000000000000081526004018080602001828103825283818151815260200191508051906020019080838360005b838110156129ee5780820151818401526020810190506129d3565b50505050905090810190601f168015612a1b5780820380516001836020036101000a031916815260200191505b509250505060405180910390fd5b50846000016001820381548110612a3c57fe5b9060005260206000209060020201600101549150509392505050565b600081600001805490509050919050565b6000612a8a8473ffffffffffffffffffffffffffffffffffffffff16612f76565b612a975760019050612ca6565b6060612c2d63150b7a0260e01b612aac61201b565b888787604051602401808573ffffffffffffffffffffffffffffffffffffffff1673ffffffffffffffffffffffffffffffffffffffff1681526020018473ffffffffffffffffffffffffffffffffffffffff1673ffffffffffffffffffffffffffffffffffffffff16815260200183815260200180602001828103825283818151815260200191508051906020019080838360005b83811015612b5c578082015181840152602081019050612b41565b50505050905090810190601f168015612b895780820380516001836020036101000a031916815260200191505b5095505050505050604051602081830303815290604052907bffffffffffffffffffffffffffffffffffffffffffffffffffffffff19166020820180517bffffffffffffffffffffffffffffffffffffffffffffffffffffffff83818316178352505050506040518060600160405280603281526020016135b5603291398773ffffffffffffffffffffffffffffffffffffffff16612f899092919063ffffffff16565b90506000818060200190516020811015612c4657600080fd5b8101908080519060200190929190505050905063150b7a0260e01b7bffffffffffffffffffffffffffffffffffffffffffffffffffffffff1916817bffffffffffffffffffffffffffffffffffffffffffffffffffffffff191614925050505b949350505050565b612cb88383612fa1565b612cc56000848484612a69565b612d1a576040517f08c379a00000000000000000000000000000000000000000000000000000000081526004018080602001828103825260328152602001806135b56032913960400191505060405180910390fd5b505050565b600080836001016000848152602001908152602001600020541415905092915050565b60008083600101600084815260200190815260200160002054905060008114612e1e5760006001820390506000600186600001805490500390506000866000018281548110612d8d57fe5b9060005260206000200154905080876000018481548110612daa57fe5b9060005260206000200181905550600183018760010160008381526020019081526020016000208190555086600001805480612de257fe5b60019003818190600052602060002001600090559055866001016000878152602001908152602001600020600090556001945050505050612e24565b60009150505b92915050565b6000612e368383613195565b612e8f578260000182908060018154018082558091505060019003906000526020600020016000909190919091505582600001805490508360010160008481526020019081526020016000208190555060019050612e94565b600090505b92915050565b6000808460010160008581526020019081526020016000205490506000811415612f4157846000016040518060400160405280868152602001858152509080600181540180825580915050600190039060005260206000209060020201600090919091909150600082015181600001556020820151816001015550508460000180549050856001016000868152602001908152602001600020819055506001915050612f6f565b82856000016001830381548110612f5457fe5b90600052602060002090600202016001018190555060009150505b9392505050565b600080823b905060008111915050919050565b6060612f9884846000856131b8565b90509392505050565b600073ffffffffffffffffffffffffffffffffffffffff168273ffffffffffffffffffffffffffffffffffffffff161415613044576040517f08c379a00000000000000000000000000000000000000000000000000000000081526004018080602001828103825260208152602001807f4552433732313a206d696e7420746f20746865207a65726f206164647265737381525060200191505060405180910390fd5b61304d81611ffe565b156130c0576040517f08c379a000000000000000000000000000000000000000000000000000000000815260040180806020018281038252601c8152602001807f4552433732313a20746f6b656e20616c7265616479206d696e7465640000000081525060200191505060405180910390fd5b6130cc600083836127d8565b61311d81600160008573ffffffffffffffffffffffffffffffffffffffff1673ffffffffffffffffffffffffffffffffffffffff1681526020019081526020016000206127f790919063ffffffff16565b50613134818360026128119092919063ffffffff16565b50808273ffffffffffffffffffffffffffffffffffffffff16600073ffffffffffffffffffffffffffffffffffffffff167fddf252ad1be2c89b69c2b068fc378daa952ba7f163c4a11628f55a4df523b3ef60405160405180910390a45050565b600080836001016000848152602001908152602001600020541415905092915050565b606082471015613213576040517f08c379a000000000000000000000000000000000000000000000000000000000815260040180806020018281038252602681526020018061360b6026913960400191505060405180910390fd5b61321c85612f76565b61328e576040517f08c379a000000000000000000000000000000000000000000000000000000000815260040180806020018281038252601d8152602001807f416464726573733a2063616c6c20746f206e6f6e2d636f6e747261637400000081525060200191505060405180910390fd5b600060608673ffffffffffffffffffffffffffffffffffffffff1685876040518082805190602001908083835b602083106132de57805182526020820191506020810190506020830392506132bb565b6001836020036101000a03801982511681845116808217855250505050505090500191505060006040518083038185875af1925050503d8060008114613340576040519150601f19603f3d011682016040523d82523d6000602084013e613345565b606091505b5091509150613355828286613361565b92505050949350505050565b6060831561337157829050613426565b6000835111156133845782518084602001fd5b816040517f08c379a00000000000000000000000000000000000000000000000000000000081526004018080602001828103825283818151815260200191508051906020019080838360005b838110156133eb5780820151818401526020810190506133d0565b50505050905090810190601f1680156134185780820380516001836020036101000a031916815260200191505b509250505060405180910390fd5b9392505050565b6040518060800160405280600073ffffffffffffffffffffffffffffffffffffffff16815260200160008152602001606081526020016000151581525090565b828054600181600116156101000203166002900490600052602060002090601f016020900481019282601f106134ae57805160ff19168380011785556134dc565b828001600101855582156134dc579182015b828111156134db5782518255916020019190600101906134c0565b5b5090506134e9919061356d565b5090565b828054600181600116156101000203166002900490600052602060002090601f016020900481019282601f1061352e57805160ff191683800117855561355c565b8280016001018555821561355c579182015b8281111561355b578251825591602001919060010190613540565b5b509050613569919061356d565b5090565b61358f91905b8082111561358b576000816000905550600101613573565b5090565b9056fe456e756d657261626c655365743a20696e646578206f7574206f6620626f756e64734552433732313a207472616e7366657220746f206e6f6e20455243373231526563656976657220696d706c656d656e7465724552433732313a207472616e7366657220746f20746865207a65726f2061646472657373416464726573733a20696e73756666696369656e742062616c616e636520666f722063616c6c4552433732313a206f70657261746f7220717565727920666f72206e6f6e6578697374656e7420746f6b656e4552433732313a20617070726f76652063616c6c6572206973206e6f74206f776e6572206e6f7220617070726f76656420666f7220616c6c4552433732313a2062616c616e636520717565727920666f7220746865207a65726f20616464726573734552433732313a206f776e657220717565727920666f72206e6f6e6578697374656e7420746f6b656e456e756d657261626c654d61703a20696e646578206f7574206f6620626f756e64734552433732313a20617070726f76656420717565727920666f72206e6f6e6578697374656e7420746f6b656e4552433732314d657461646174613a2055524920736574206f66206e6f6e6578697374656e7420746f6b656e4552433732313a207472616e73666572206f6620746f6b656e2074686174206973206e6f74206f776e4552433732314d657461646174613a2055524920717565727920666f72206e6f6e6578697374656e7420746f6b656e4552433732313a20617070726f76616c20746f2063757272656e74206f776e65724552433732313a207472616e736665722063616c6c6572206973206e6f74206f776e6572206e6f7220617070726f766564a26469706673582212207fc3b20b4e2cb03131814e548fb858cb248e1f61bd913695da09bb327e1e721464736f6c63430006020033608060405260006100146100b760201b60201c565b9050806000806101000a81548173ffffffffffffffffffffffffffffffffffffffff021916908373ffffffffffffffffffffffffffffffffffffffff1602179055508073ffffffffffffffffffffffffffffffffffffffff16600073ffffffffffffffffffffffffffffffffffffffff167f8be0079c531659141344cd1fd0a4f28419497f9722a3daafe3b4186f6b6457e060405160405180910390a3506100bf565b600033905090565b610bfc806100ce6000396000f3fe6080604052600436106100555760003560e01c806351cff8d91461005a578063715018a6146100ab5780638da5cb5b146100c2578063e3a9db1a14610119578063f2fde38b1461017e578063f340fa01146101cf575b600080fd5b34801561006657600080fd5b506100a96004803603602081101561007d57600080fd5b81019080803573ffffffffffffffffffffffffffffffffffffffff169060200190929190505050610213565b005b3480156100b757600080fd5b506100c06103e0565b005b3480156100ce57600080fd5b506100d7610568565b604051808273ffffffffffffffffffffffffffffffffffffffff1673ffffffffffffffffffffffffffffffffffffffff16815260200191505060405180910390f35b34801561012557600080fd5b506101686004803603602081101561013c57600080fd5b81019080803573ffffffffffffffffffffffffffffffffffffffff169060200190929190505050610591565b6040518082815260200191505060405180910390f35b34801561018a57600080fd5b506101cd600480360360208110156101a157600080fd5b81019080803573ffffffffffffffffffffffffffffffffffffffff1690602001909291905050506105da565b005b610211600480360360208110156101e557600080fd5b81019080803573ffffffffffffffffffffffffffffffffffffffff1690602001909291905050506107e7565b005b61021b61099c565b73ffffffffffffffffffffffffffffffffffffffff166000809054906101000a900473ffffffffffffffffffffffffffffffffffffffff1673ffffffffffffffffffffffffffffffffffffffff16146102dc576040517f08c379a00000000000000000000000000000000000000000000000000000000081526004018080602001828103825260208152602001807f4f776e61626c653a2063616c6c6572206973206e6f7420746865206f776e657281525060200191505060405180910390fd5b6000600160008373ffffffffffffffffffffffffffffffffffffffff1673ffffffffffffffffffffffffffffffffffffffff1681526020019081526020016000205490506000600160008473ffffffffffffffffffffffffffffffffffffffff1673ffffffffffffffffffffffffffffffffffffffff1681526020019081526020016000208190555061038e818373ffffffffffffffffffffffffffffffffffffffff166109a490919063ffffffff16565b8173ffffffffffffffffffffffffffffffffffffffff167f7084f5476618d8e60b11ef0d7d3f06914655adb8793e28ff7f018d4c76d505d5826040518082815260200191505060405180910390a25050565b6103e861099c565b73ffffffffffffffffffffffffffffffffffffffff166000809054906101000a900473ffffffffffffffffffffffffffffffffffffffff1673ffffffffffffffffffffffffffffffffffffffff16146104a9576040517f08c379a00000000000000000000000000000000000000000000000000000000081526004018080602001828103825260208152602001807f4f776e61626c653a2063616c6c6572206973206e6f7420746865206f776e657281525060200191505060405180910390fd5b600073ffffffffffffffffffffffffffffffffffffffff166000809054906101000a900473ffffffffffffffffffffffffffffffffffffffff1673ffffffffffffffffffffffffffffffffffffffff167f8be0079c531659141344cd1fd0a4f28419497f9722a3daafe3b4186f6b6457e060405160405180910390a360008060006101000a81548173ffffffffffffffffffffffffffffffffffffffff021916908373ffffffffffffffffffffffffffffffffffffffff160217905550565b60008060009054906101000a900473ffffffffffffffffffffffffffffffffffffffff16905090565b6000600160008373ffffffffffffffffffffffffffffffffffffffff1673ffffffffffffffffffffffffffffffffffffffff168152602001908152602001600020549050919050565b6105e261099c565b73ffffffffffffffffffffffffffffffffffffffff166000809054906101000a900473ffffffffffffffffffffffffffffffffffffffff1673ffffffffffffffffffffffffffffffffffffffff16146106a3576040517f08c379a00000000000000000000000000000000000000000000000000000000081526004018080602001828103825260208152602001807f4f776e61626c653a2063616c6c6572206973206e6f7420746865206f776e657281525060200191505060405180910390fd5b600073ffffffffffffffffffffffffffffffffffffffff168173ffffffffffffffffffffffffffffffffffffffff161415610729576040517f08c379a0000000000000000000000000000000000000000000000000000000008152600401808060200182810382526026815260200180610b676026913960400191505060405180910390fd5b8073ffffffffffffffffffffffffffffffffffffffff166000809054906101000a900473ffffffffffffffffffffffffffffffffffffffff1673ffffffffffffffffffffffffffffffffffffffff167f8be0079c531659141344cd1fd0a4f28419497f9722a3daafe3b4186f6b6457e060405160405180910390a3806000806101000a81548173ffffffffffffffffffffffffffffffffffffffff021916908373ffffffffffffffffffffffffffffffffffffffff16021790555050565b6107ef61099c565b73ffffffffffffffffffffffffffffffffffffffff166000809054906101000a900473ffffffffffffffffffffffffffffffffffffffff1673ffffffffffffffffffffffffffffffffffffffff16146108b0576040517f08c379a00000000000000000000000000000000000000000000000000000000081526004018080602001828103825260208152602001807f4f776e61626c653a2063616c6c6572206973206e6f7420746865206f776e657281525060200191505060405180910390fd5b600034905061090781600160008573ffffffffffffffffffffffffffffffffffffffff1673ffffffffffffffffffffffffffffffffffffffff16815260200190815260200160002054610ade90919063ffffffff16565b600160008473ffffffffffffffffffffffffffffffffffffffff1673ffffffffffffffffffffffffffffffffffffffff168152602001908152602001600020819055508173ffffffffffffffffffffffffffffffffffffffff167f2da466a7b24304f47e87fa2e1e5a81b9831ce54fec19055ce277ca2f39ba42c4826040518082815260200191505060405180910390a25050565b600033905090565b80471015610a1a576040517f08c379a000000000000000000000000000000000000000000000000000000000815260040180806020018281038252601d8152602001807f416464726573733a20696e73756666696369656e742062616c616e636500000081525060200191505060405180910390fd5b60008273ffffffffffffffffffffffffffffffffffffffff168260405180600001905060006040518083038185875af1925050503d8060008114610a7a576040519150601f19603f3d011682016040523d82523d6000602084013e610a7f565b606091505b5050905080610ad9576040517f08c379a000000000000000000000000000000000000000000000000000000000815260040180806020018281038252603a815260200180610b8d603a913960400191505060405180910390fd5b505050565b600080828401905083811015610b5c576040517f08c379a000000000000000000000000000000000000000000000000000000000815260040180806020018281038252601b8152602001807f536166654d6174683a206164646974696f6e206f766572666c6f77000000000081525060200191505060405180910390fd5b809150509291505056fe4f776e61626c653a206e6577206f776e657220697320746865207a65726f2061646472657373416464726573733a20756e61626c6520746f2073656e642076616c75652c20726563697069656e74206d61792068617665207265766572746564a2646970667358221220f8a9add4551e7f7717b6aed4db0e8890fd5d280366fcd68fed767ad6bfa8007e64736f6c63430006020033",
  "source": "// SPDX-License-Identifier: MIT\npragma solidity >=0.5.0 <0.8.0;\n\nimport \"@openzeppelin/contracts/token/ERC721/ERC721.sol\";\nimport \"@openzeppelin/contracts/payment/PullPayment.sol\";\n\ncontract TangibleItems is ERC721, PullPayment {\n    \n    uint256 public _tokenIds;\n    uint256 public _itemIds;\n    mapping(uint256 => Item) private _items;\n\n    constructor() ERC721(\"TangibleItems\", \"TGI\") public {\n    }\n\n    modifier itemExists(uint256 id) {\n        require(_items[id].exists, \"Not Found\");\n        _;\n    }\n\n    struct Item {\n        address seller;\n        uint256 price;\n        string tokenURI;\n        bool exists;\n    }\n\n    function addItem(uint256 price, string memory tokenURI) public {\n        require(price > 0, \"Price cannot be 0\");\n\n        _itemIds++;\n        _items[_itemIds] = Item(msg.sender, price, tokenURI, true);\n    }\n\n    function getItem(uint256 id) public view itemExists(id) returns(uint256, uint256, string memory) {\n        Item memory item = _items[id];\n        return(id, item.price, item.tokenURI);\n    }\n\n    function purchaseItem(uint256 itemId) external payable itemExists(itemId) {\n        Item storage item = _items[itemId];\n\n        require(msg.value >= item.price, \"Your bid is too low\");\n\n        _tokenIds++;\n\n        _safeMint(msg.sender, _tokenIds);\n        _setTokenURI(_tokenIds, item.tokenURI);\n        _asyncTransfer(item.seller, msg.value);\n    }\n\n    function getPayments() external {\n        withdrawPayments(msg.sender);\n    }\n\n}\n",
  "sourcePath": "/Users/thomasvanslooten/Projects/pangea/contracts/TangibleItems.sol",
  "compiler": {
    "name": "solc",
    "version": "0.6.2+commit.bacdbe57.Emscripten.clang"
  },
  "schemaVersion": "3.3.3",
  "updatedAt": "2021-01-11T22:33:26.004Z",
  "networkType": "ethereum",
  "devdoc": {
    "methods": {
      "approve(address,uint256)": {
        "details": "See {IERC721-approve}."
      },
      "balanceOf(address)": {
        "details": "See {IERC721-balanceOf}."
      },
      "baseURI()": {
        "details": "Returns the base URI set via {_setBaseURI}. This will be automatically added as a prefix in {tokenURI} to each token's URI, or to the token ID if no specific URI is set for that token ID."
      },
      "getApproved(uint256)": {
        "details": "See {IERC721-getApproved}."
      },
      "isApprovedForAll(address,address)": {
        "details": "See {IERC721-isApprovedForAll}."
      },
      "name()": {
        "details": "See {IERC721Metadata-name}."
      },
      "ownerOf(uint256)": {
        "details": "See {IERC721-ownerOf}."
      },
      "payments(address)": {
        "details": "Returns the payments owed to an address.",
        "params": {
          "dest": "The creditor's address."
        }
      },
      "safeTransferFrom(address,address,uint256)": {
        "details": "See {IERC721-safeTransferFrom}."
      },
      "safeTransferFrom(address,address,uint256,bytes)": {
        "details": "See {IERC721-safeTransferFrom}."
      },
      "setApprovalForAll(address,bool)": {
        "details": "See {IERC721-setApprovalForAll}."
      },
      "supportsInterface(bytes4)": {
        "details": "See {IERC165-supportsInterface}.     * Time complexity O(1), guaranteed to always use less than 30 000 gas."
      },
      "symbol()": {
        "details": "See {IERC721Metadata-symbol}."
      },
      "tokenByIndex(uint256)": {
        "details": "See {IERC721Enumerable-tokenByIndex}."
      },
      "tokenOfOwnerByIndex(address,uint256)": {
        "details": "See {IERC721Enumerable-tokenOfOwnerByIndex}."
      },
      "tokenURI(uint256)": {
        "details": "See {IERC721Metadata-tokenURI}."
      },
      "totalSupply()": {
        "details": "See {IERC721Enumerable-totalSupply}."
      },
      "transferFrom(address,address,uint256)": {
        "details": "See {IERC721-transferFrom}."
      },
      "withdrawPayments(address)": {
        "details": "Withdraw accumulated payments, forwarding all gas to the recipient.     * Note that _any_ account can call this function, not just the `payee`. This means that contracts unaware of the `PullPayment` protocol can still receive funds this way, by having a separate account call {withdrawPayments}.     * WARNING: Forwarding all gas opens the door to reentrancy vulnerabilities. Make sure you trust the recipient, or are either following the checks-effects-interactions pattern or using {ReentrancyGuard}.",
        "params": {
          "payee": "Whose payments will be withdrawn."
        }
      }
    }
  },
  "userdoc": {
    "methods": {}
  }
}